{
  "_format": "hh-sol-artifact-1",
  "contractName": "SecurePass",
  "sourceName": "contracts/SecurePass.sol",
  "abi": [
    {
      "inputs": [],
      "stateMutability": "nonpayable",
      "type": "constructor"
    },
    {
      "inputs": [],
      "name": "RFID_CARD_COST",
      "outputs": [
        {
          "internalType": "uint256",
          "name": "",
          "type": "uint256"
        }
      ],
      "stateMutability": "view",
      "type": "function"
    },
    {
      "inputs": [
        {
          "internalType": "uint256",
          "name": "_eventId",
          "type": "uint256"
        }
      ],
      "name": "buyTicket",
      "outputs": [],
      "stateMutability": "payable",
      "type": "function"
    },
    {
      "inputs": [
        {
          "internalType": "string",
          "name": "_eventName",
          "type": "string"
        },
        {
          "internalType": "uint256",
          "name": "_eventDate",
          "type": "uint256"
        },
        {
          "internalType": "uint256",
          "name": "_ticketPrice",
          "type": "uint256"
        },
        {
          "internalType": "uint256",
          "name": "_ticketCount",
          "type": "uint256"
        }
      ],
      "name": "createEvent",
      "outputs": [],
      "stateMutability": "nonpayable",
      "type": "function"
    },
    {
      "inputs": [],
      "name": "eventCounter",
      "outputs": [
        {
          "internalType": "uint256",
          "name": "",
          "type": "uint256"
        }
      ],
      "stateMutability": "view",
      "type": "function"
    },
    {
      "inputs": [
        {
          "internalType": "address",
          "name": "",
          "type": "address"
        }
      ],
      "name": "eventOrganizers",
      "outputs": [
        {
          "internalType": "bool",
          "name": "",
          "type": "bool"
        }
      ],
      "stateMutability": "view",
      "type": "function"
    },
    {
      "inputs": [
        {
          "internalType": "uint256",
          "name": "",
          "type": "uint256"
        }
      ],
      "name": "events",
      "outputs": [
        {
          "internalType": "uint256",
          "name": "eventId",
          "type": "uint256"
        },
        {
          "internalType": "string",
          "name": "eventName",
          "type": "string"
        },
        {
          "internalType": "uint256",
          "name": "eventDate",
          "type": "uint256"
        },
        {
          "internalType": "uint256",
          "name": "ticketPrice",
          "type": "uint256"
        },
        {
          "internalType": "uint256",
          "name": "ticketCount",
          "type": "uint256"
        },
        {
          "internalType": "uint256",
          "name": "ticketSold",
          "type": "uint256"
        },
        {
          "internalType": "address",
          "name": "eventOrganizers",
          "type": "address"
        },
        {
          "internalType": "bool",
          "name": "isValid",
          "type": "bool"
        }
      ],
      "stateMutability": "view",
      "type": "function"
    },
    {
      "inputs": [],
      "name": "getAllEvents",
      "outputs": [
        {
          "components": [
            {
              "internalType": "uint256",
              "name": "eventId",
              "type": "uint256"
            },
            {
              "internalType": "string",
              "name": "eventName",
              "type": "string"
            },
            {
              "internalType": "uint256",
              "name": "eventDate",
              "type": "uint256"
            },
            {
              "internalType": "uint256",
              "name": "ticketPrice",
              "type": "uint256"
            },
            {
              "internalType": "uint256",
              "name": "ticketCount",
              "type": "uint256"
            },
            {
              "internalType": "uint256",
              "name": "ticketSold",
              "type": "uint256"
            },
            {
              "internalType": "address",
              "name": "eventOrganizers",
              "type": "address"
            },
            {
              "internalType": "bool",
              "name": "isValid",
              "type": "bool"
            }
          ],
          "internalType": "struct SecurePass.Event[]",
          "name": "",
          "type": "tuple[]"
        }
      ],
      "stateMutability": "view",
      "type": "function"
    },
    {
      "inputs": [
        {
          "internalType": "uint256",
          "name": "_eventId",
          "type": "uint256"
        }
      ],
      "name": "getEventDetails",
      "outputs": [
        {
          "components": [
            {
              "internalType": "uint256",
              "name": "eventId",
              "type": "uint256"
            },
            {
              "internalType": "string",
              "name": "eventName",
              "type": "string"
            },
            {
              "internalType": "uint256",
              "name": "eventDate",
              "type": "uint256"
            },
            {
              "internalType": "uint256",
              "name": "ticketPrice",
              "type": "uint256"
            },
            {
              "internalType": "uint256",
              "name": "ticketCount",
              "type": "uint256"
            },
            {
              "internalType": "uint256",
              "name": "ticketSold",
              "type": "uint256"
            },
            {
              "internalType": "address",
              "name": "eventOrganizers",
              "type": "address"
            },
            {
              "internalType": "bool",
              "name": "isValid",
              "type": "bool"
            }
          ],
          "internalType": "struct SecurePass.Event",
          "name": "",
          "type": "tuple"
        }
      ],
      "stateMutability": "view",
      "type": "function"
    },
    {
      "inputs": [
        {
          "internalType": "address",
          "name": "organizer",
          "type": "address"
        }
      ],
      "name": "getEventIdsOfAUser",
      "outputs": [
        {
          "internalType": "uint256[]",
          "name": "",
          "type": "uint256[]"
        }
      ],
      "stateMutability": "view",
      "type": "function"
    },
    {
      "inputs": [
        {
          "internalType": "uint256",
          "name": "_ticketId",
          "type": "uint256"
        }
      ],
      "name": "getTicketDetails",
      "outputs": [
        {
          "components": [
            {
              "internalType": "uint256",
              "name": "ticketId",
              "type": "uint256"
            },
            {
              "internalType": "uint256",
              "name": "eventId",
              "type": "uint256"
            },
            {
              "internalType": "address",
              "name": "buyer",
              "type": "address"
            },
            {
              "internalType": "bool",
              "name": "isValid",
              "type": "bool"
            }
          ],
          "internalType": "struct SecurePass.Ticket",
          "name": "",
          "type": "tuple"
        }
      ],
      "stateMutability": "view",
      "type": "function"
    },
    {
      "inputs": [
        {
          "internalType": "address",
          "name": "_userAddress",
          "type": "address"
        }
      ],
      "name": "getUserDetails",
      "outputs": [
        {
          "components": [
            {
              "internalType": "uint256",
              "name": "userId",
              "type": "uint256"
            },
            {
              "internalType": "address",
              "name": "userAddress",
              "type": "address"
            },
            {
              "internalType": "bool",
              "name": "hasRFIDCard",
              "type": "bool"
            },
            {
              "internalType": "uint256[]",
              "name": "ticketsArray",
              "type": "uint256[]"
            }
          ],
          "internalType": "struct SecurePass.User",
          "name": "",
          "type": "tuple"
        }
      ],
      "stateMutability": "view",
      "type": "function"
    },
    {
      "inputs": [
        {
          "internalType": "address",
          "name": "user",
          "type": "address"
        }
      ],
      "name": "isNewuser",
      "outputs": [
        {
          "internalType": "bool",
          "name": "",
          "type": "bool"
        }
      ],
      "stateMutability": "view",
      "type": "function"
    },
    {
      "inputs": [
        {
          "internalType": "uint256",
          "name": "_eventId",
          "type": "uint256"
        },
        {
          "internalType": "address",
          "name": "_userAddress",
          "type": "address"
        }
      ],
      "name": "isTicketValid",
      "outputs": [
        {
          "internalType": "bool",
          "name": "",
          "type": "bool"
        }
      ],
      "stateMutability": "view",
      "type": "function"
    },
    {
      "inputs": [
        {
          "internalType": "address",
          "name": "",
          "type": "address"
        },
        {
          "internalType": "uint256",
          "name": "",
          "type": "uint256"
        }
      ],
      "name": "organizerEvents",
      "outputs": [
        {
          "internalType": "uint256",
          "name": "",
          "type": "uint256"
        }
      ],
      "stateMutability": "view",
      "type": "function"
    },
    {
      "inputs": [],
      "name": "owner",
      "outputs": [
        {
          "internalType": "address",
          "name": "",
          "type": "address"
        }
      ],
      "stateMutability": "view",
      "type": "function"
    },
    {
      "inputs": [
        {
          "internalType": "uint256",
          "name": "_eventId",
          "type": "uint256"
        }
      ],
      "name": "removeEvent",
      "outputs": [],
      "stateMutability": "nonpayable",
      "type": "function"
    },
    {
      "inputs": [],
      "name": "ticketCounter",
      "outputs": [
        {
          "internalType": "uint256",
          "name": "",
          "type": "uint256"
        }
      ],
      "stateMutability": "view",
      "type": "function"
    },
    {
      "inputs": [
        {
          "internalType": "uint256",
          "name": "",
          "type": "uint256"
        }
      ],
      "name": "tickets",
      "outputs": [
        {
          "internalType": "uint256",
          "name": "ticketId",
          "type": "uint256"
        },
        {
          "internalType": "uint256",
          "name": "eventId",
          "type": "uint256"
        },
        {
          "internalType": "address",
          "name": "buyer",
          "type": "address"
        },
        {
          "internalType": "bool",
          "name": "isValid",
          "type": "bool"
        }
      ],
      "stateMutability": "view",
      "type": "function"
    },
    {
      "inputs": [
        {
          "internalType": "uint256",
          "name": "_eventId",
          "type": "uint256"
        },
        {
          "internalType": "uint256",
          "name": "_eventDate",
          "type": "uint256"
        }
      ],
      "name": "updateEventDate",
      "outputs": [],
      "stateMutability": "nonpayable",
      "type": "function"
    },
    {
      "inputs": [
        {
          "internalType": "uint256",
          "name": "_eventId",
          "type": "uint256"
        },
        {
          "internalType": "string",
          "name": "_eventName",
          "type": "string"
        }
      ],
      "name": "updateEventName",
      "outputs": [],
      "stateMutability": "nonpayable",
      "type": "function"
    },
    {
      "inputs": [
        {
          "internalType": "uint256",
          "name": "_eventId",
          "type": "uint256"
        },
        {
          "internalType": "uint256",
          "name": "_ticketCount",
          "type": "uint256"
        }
      ],
      "name": "updateTicketCount",
      "outputs": [],
      "stateMutability": "nonpayable",
      "type": "function"
    },
    {
      "inputs": [
        {
          "internalType": "uint256",
          "name": "_eventId",
          "type": "uint256"
        },
        {
          "internalType": "uint256",
          "name": "_ticketPrice",
          "type": "uint256"
        }
      ],
      "name": "updateTicketPrice",
      "outputs": [],
      "stateMutability": "nonpayable",
      "type": "function"
    },
    {
      "inputs": [],
      "name": "userCounter",
      "outputs": [
        {
          "internalType": "uint256",
          "name": "",
          "type": "uint256"
        }
      ],
      "stateMutability": "view",
      "type": "function"
    },
    {
      "inputs": [
        {
          "internalType": "address",
          "name": "",
          "type": "address"
        }
      ],
      "name": "users",
      "outputs": [
        {
          "internalType": "uint256",
          "name": "userId",
          "type": "uint256"
        },
        {
          "internalType": "address",
          "name": "userAddress",
          "type": "address"
        },
        {
          "internalType": "bool",
          "name": "hasRFIDCard",
          "type": "bool"
        }
      ],
      "stateMutability": "view",
      "type": "function"
    },
    {
      "inputs": [
        {
          "internalType": "uint256",
          "name": "_eventId",
          "type": "uint256"
        }
      ],
      "name": "withdrawPayment",
      "outputs": [],
      "stateMutability": "nonpayable",
      "type": "function"
    }
  ],
  "bytecode": "0x608060405234801561001057600080fd5b50336000806101000a81548173ffffffffffffffffffffffffffffffffffffffff021916908373ffffffffffffffffffffffffffffffffffffffff16021790555060016002819055506103e86003819055506103e8600481905550613de88061007a6000396000f3fe6080604052600436106101665760003560e01c8063738201e9116100d1578063c6d4ce471161008a578063e1495fac11610064578063e1495fac14610571578063e4aa47e3146105ae578063ec38d5a0146105eb578063f0c37a591461062857610166565b8063c6d4ce47146104e2578063cc3d967b1461050b578063dbd3cd621461054857610166565b8063738201e9146103a85780638c4d59d0146103e55780638da5cb5b14610410578063a87430ba1461043b578063b99583f21461047a578063c27a500d146104b757610166565b80632c49f35e116101235780632c49f35e14610292578063458b514a146102bb57806350b44712146102f857806352c55db91461033857806356164e1e1461036357806367dd74ca1461038c57610166565b8063011b39501461016b5780630374ab0b146101945780630b791430146101bd57806311d04fcd1461020157806317d4357b1461022c57806324c1416014610255575b600080fd5b34801561017757600080fd5b50610192600480360381019061018d9190612727565b610653565b005b3480156101a057600080fd5b506101bb60048036038101906101b691906128ad565b61075a565b005b3480156101c957600080fd5b506101e460048036038101906101df9190612930565b6109c5565b6040516101f8989796959493929190612a47565b60405180910390f35b34801561020d57600080fd5b50610216610ac2565b6040516102239190612acc565b60405180910390f35b34801561023857600080fd5b50610253600480360381019061024e9190612ae7565b610ac7565b005b34801561026157600080fd5b5061027c60048036038101906102779190612930565b610b95565b6040516102899190612bc5565b60405180910390f35b34801561029e57600080fd5b506102b960048036038101906102b49190612727565b610c9f565b005b3480156102c757600080fd5b506102e260048036038101906102dd9190612c0c565b610dbd565b6040516102ef9190612ce8565b60405180910390f35b34801561030457600080fd5b5061031f600480360381019061031a9190612930565b610e54565b60405161032f9493929190612d0a565b60405180910390f35b34801561034457600080fd5b5061034d610eb1565b60405161035a9190612acc565b60405180910390f35b34801561036f57600080fd5b5061038a60048036038101906103859190612930565b610eb7565b005b6103a660048036038101906103a19190612930565b6111ab565b005b3480156103b457600080fd5b506103cf60048036038101906103ca9190612c0c565b611876565b6040516103dc9190612d4f565b60405180910390f35b3480156103f157600080fd5b506103fa6118d0565b6040516104079190612acc565b60405180910390f35b34801561041c57600080fd5b506104256118d6565b6040516104329190612d6a565b60405180910390f35b34801561044757600080fd5b50610462600480360381019061045d9190612c0c565b6118fa565b60405161047193929190612d85565b60405180910390f35b34801561048657600080fd5b506104a1600480360381019061049c9190612dbc565b611951565b6040516104ae9190612d4f565b60405180910390f35b3480156104c357600080fd5b506104cc611b1e565b6040516104d99190612fb8565b60405180910390f35b3480156104ee57600080fd5b5061050960048036038101906105049190612727565b611d24565b005b34801561051757600080fd5b50610532600480360381019061052d9190612c0c565b611e42565b60405161053f91906130ac565b60405180910390f35b34801561055457600080fd5b5061056f600480360381019061056a9190612930565b61203e565b005b34801561057d57600080fd5b5061059860048036038101906105939190612c0c565b612344565b6040516105a59190612d4f565b60405180910390f35b3480156105ba57600080fd5b506105d560048036038101906105d091906130ce565b612364565b6040516105e29190612acc565b60405180910390f35b3480156105f757600080fd5b50610612600480360381019061060d9190612930565b612395565b60405161061f91906131be565b60405180910390f35b34801561063457600080fd5b5061063d612550565b60405161064a9190612acc565b60405180910390f35b813373ffffffffffffffffffffffffffffffffffffffff166005600083815260200190815260200160002060060160009054906101000a900473ffffffffffffffffffffffffffffffffffffffff1673ffffffffffffffffffffffffffffffffffffffff16146106f8576040517f08c379a00000000000000000000000000000000000000000000000000000000081526004016106ef9061322c565b60405180910390fd5b42821161073a576040517f08c379a000000000000000000000000000000000000000000000000000000000815260040161073190613298565b60405180910390fd5b816005600085815260200190815260200160002060020181905550505050565b42831161079c576040517f08c379a000000000000000000000000000000000000000000000000000000000815260040161079390613298565b60405180910390fd5b600081116107df576040517f08c379a00000000000000000000000000000000000000000000000000000000081526004016107d69061332a565b60405180910390fd5b60008211610822576040517f08c379a0000000000000000000000000000000000000000000000000000000008152600401610819906133bc565b60405180910390fd5b600260008154809291906108359061340b565b91905055506040518061010001604052806002548152602001858152602001848152602001838152602001828152602001600081526020013373ffffffffffffffffffffffffffffffffffffffff168152602001600115158152506005600060025481526020019081526020016000206000820151816000015560208201518160010190816108c4919061365f565b5060408201518160020155606082015181600301556080820151816004015560a0820151816005015560c08201518160060160006101000a81548173ffffffffffffffffffffffffffffffffffffffff021916908373ffffffffffffffffffffffffffffffffffffffff16021790555060e08201518160060160146101000a81548160ff021916908315150217905550905050600860003373ffffffffffffffffffffffffffffffffffffffff1673ffffffffffffffffffffffffffffffffffffffff168152602001908152602001600020600254908060018154018082558091505060019003906000526020600020016000909190919091505550505050565b60056020528060005260406000206000915090508060000154908060010180546109ee90613482565b80601f0160208091040260200160405190810160405280929190818152602001828054610a1a90613482565b8015610a675780601f10610a3c57610100808354040283529160200191610a67565b820191906000526020600020905b815481529060010190602001808311610a4a57829003601f168201915b5050505050908060020154908060030154908060040154908060050154908060060160009054906101000a900473ffffffffffffffffffffffffffffffffffffffff16908060060160149054906101000a900460ff16905088565b600a81565b813373ffffffffffffffffffffffffffffffffffffffff166005600083815260200190815260200160002060060160009054906101000a900473ffffffffffffffffffffffffffffffffffffffff1673ffffffffffffffffffffffffffffffffffffffff1614610b6c576040517f08c379a0000000000000000000000000000000000000000000000000000000008152600401610b639061322c565b60405180910390fd5b81600560008581526020019081526020016000206001019081610b8f919061365f565b50505050565b610b9d612556565b81600660008481526020019081526020016000206000015414610bf5576040517f08c379a0000000000000000000000000000000000000000000000000000000008152600401610bec9061377d565b60405180910390fd5b6006600083815260200190815260200160002060405180608001604052908160008201548152602001600182015481526020016002820160009054906101000a900473ffffffffffffffffffffffffffffffffffffffff1673ffffffffffffffffffffffffffffffffffffffff1673ffffffffffffffffffffffffffffffffffffffff1681526020016002820160149054906101000a900460ff1615151515815250509050919050565b813373ffffffffffffffffffffffffffffffffffffffff166005600083815260200190815260200160002060060160009054906101000a900473ffffffffffffffffffffffffffffffffffffffff1673ffffffffffffffffffffffffffffffffffffffff1614610d44576040517f08c379a0000000000000000000000000000000000000000000000000000000008152600401610d3b9061322c565b60405180910390fd5b6000600560008581526020019081526020016000206005015414610d9d576040517f08c379a0000000000000000000000000000000000000000000000000000000008152600401610d94906137e9565b60405180910390fd5b816005600085815260200190815260200160002060030181905550505050565b6060600860008373ffffffffffffffffffffffffffffffffffffffff1673ffffffffffffffffffffffffffffffffffffffff168152602001908152602001600020805480602002602001604051908101604052809291908181526020018280548015610e4857602002820191906000526020600020905b815481526020019060010190808311610e34575b50505050509050919050565b60066020528060005260406000206000915090508060000154908060010154908060020160009054906101000a900473ffffffffffffffffffffffffffffffffffffffff16908060020160149054906101000a900460ff16905084565b60025481565b803373ffffffffffffffffffffffffffffffffffffffff166005600083815260200190815260200160002060060160009054906101000a900473ffffffffffffffffffffffffffffffffffffffff1673ffffffffffffffffffffffffffffffffffffffff1614610f5c576040517f08c379a0000000000000000000000000000000000000000000000000000000008152600401610f539061322c565b60405180910390fd5b6000600560008481526020019081526020016000206005015414610fb5576040517f08c379a0000000000000000000000000000000000000000000000000000000008152600401610fac906137e9565b60405180910390fd5b6005600083815260200190815260200160002060060160149054906101000a900460ff16611018576040517f08c379a000000000000000000000000000000000000000000000000000000000815260040161100f90613855565b60405180910390fd5b6000600860003373ffffffffffffffffffffffffffffffffffffffff1673ffffffffffffffffffffffffffffffffffffffff168152602001908152602001600020905060005b818054905081101561111c578382828154811061107e5761107d613875565b5b9060005260206000200154036111095781600183805490506110a091906138a4565b815481106110b1576110b0613875565b5b90600052602060002001548282815481106110cf576110ce613875565b5b9060005260206000200181905550818054806110ee576110ed6138d8565b5b6001900381819060005260206000200160009055905561111c565b80806111149061340b565b91505061105e565b50600560008481526020019081526020016000206000808201600090556001820160006111499190612596565b60028201600090556003820160009055600482016000905560058201600090556006820160006101000a81549073ffffffffffffffffffffffffffffffffffffffff02191690556006820160146101000a81549060ff02191690555050505050565b80600560008381526020019081526020016000206000015414611203576040517f08c379a00000000000000000000000000000000000000000000000000000000081526004016111fa90613953565b60405180910390fd5b600060056000838152602001908152602001600020600401541161125c576040517f08c379a0000000000000000000000000000000000000000000000000000000008152600401611253906139bf565b60405180910390fd5b6005600082815260200190815260200160002060060160149054906101000a900460ff166112bf576040517f08c379a00000000000000000000000000000000000000000000000000000000081526004016112b690613855565b60405180910390fd5b60005b600760003373ffffffffffffffffffffffffffffffffffffffff1673ffffffffffffffffffffffffffffffffffffffff168152602001908152602001600020600201805490508110156113d8578160066000600760003373ffffffffffffffffffffffffffffffffffffffff1673ffffffffffffffffffffffffffffffffffffffff168152602001908152602001600020600201848154811061136857611367613875565b5b9060005260206000200154815260200190815260200160002060010154036113c5576040517f08c379a00000000000000000000000000000000000000000000000000000000081526004016113bc90613a2b565b60405180910390fd5b80806113d09061340b565b9150506112c2565b50600060056000838152602001908152602001600020600301549050600760003373ffffffffffffffffffffffffffffffffffffffff1673ffffffffffffffffffffffffffffffffffffffff16815260200190815260200160002060010160149054906101000a900460ff1661145857600a816114559190613a4b565b90505b8034101561149b576040517f08c379a000000000000000000000000000000000000000000000000000000000815260040161149290613acb565b60405180910390fd5b600360008154809291906114ae9061340b565b91905055506005600083815260200190815260200160002060040160008154809291906114da90613aeb565b9190505550600760003373ffffffffffffffffffffffffffffffffffffffff1673ffffffffffffffffffffffffffffffffffffffff1681526020019081526020016000206002016003549080600181540180825580915050600190039060005260206000200160009091909190915055604051806080016040528060035481526020018381526020013373ffffffffffffffffffffffffffffffffffffffff16815260200160011515815250600660006003548152602001908152602001600020600082015181600001556020820151816001015560408201518160020160006101000a81548173ffffffffffffffffffffffffffffffffffffffff021916908373ffffffffffffffffffffffffffffffffffffffff16021790555060608201518160020160146101000a81548160ff021916908315150217905550905050600760003373ffffffffffffffffffffffffffffffffffffffff1673ffffffffffffffffffffffffffffffffffffffff16815260200190815260200160002060010160149054906101000a900460ff1661184657600460008154809291906116809061340b565b9190505550604051806080016040528060045481526020013373ffffffffffffffffffffffffffffffffffffffff168152602001600115158152602001600067ffffffffffffffff8111156116d8576116d7612782565b5b6040519080825280602002602001820160405280156117065781602001602082028036833780820191505090505b50815250600760003373ffffffffffffffffffffffffffffffffffffffff1673ffffffffffffffffffffffffffffffffffffffff1681526020019081526020016000206000820151816000015560208201518160010160006101000a81548173ffffffffffffffffffffffffffffffffffffffff021916908373ffffffffffffffffffffffffffffffffffffffff16021790555060408201518160010160146101000a81548160ff02191690831515021790555060608201518160020190805190602001906117d69291906125d6565b50905050600760003373ffffffffffffffffffffffffffffffffffffffff1673ffffffffffffffffffffffffffffffffffffffff16815260200190815260200160002060020160035490806001815401808255809150506001900390600052602060002001600090919091909150555b60056000838152602001908152602001600020600501600081548092919061186d9061340b565b91905055505050565b6000600760008373ffffffffffffffffffffffffffffffffffffffff1673ffffffffffffffffffffffffffffffffffffffff16815260200190815260200160002060010160149054906101000a900460ff16159050919050565b60035481565b60008054906101000a900473ffffffffffffffffffffffffffffffffffffffff1681565b60076020528060005260406000206000915090508060000154908060010160009054906101000a900473ffffffffffffffffffffffffffffffffffffffff16908060010160149054906101000a900460ff16905083565b60008173ffffffffffffffffffffffffffffffffffffffff16600760008473ffffffffffffffffffffffffffffffffffffffff1673ffffffffffffffffffffffffffffffffffffffff16815260200190815260200160002060010160009054906101000a900473ffffffffffffffffffffffffffffffffffffffff1673ffffffffffffffffffffffffffffffffffffffff1614611a23576040517f08c379a0000000000000000000000000000000000000000000000000000000008152600401611a1a90613b60565b60405180910390fd5b60005b600760008473ffffffffffffffffffffffffffffffffffffffff1673ffffffffffffffffffffffffffffffffffffffff16815260200190815260200160002060020180549050811015611b12576000600760008573ffffffffffffffffffffffffffffffffffffffff1673ffffffffffffffffffffffffffffffffffffffff1681526020019081526020016000206002018281548110611ac957611ac8613875565b5b9060005260206000200154905084600660008381526020019081526020016000206001015403611afe57600192505050611b18565b508080611b0a9061340b565b915050611a26565b50600090505b92915050565b6060600060025467ffffffffffffffff811115611b3e57611b3d612782565b5b604051908082528060200260200182016040528015611b7757816020015b611b64612623565b815260200190600190039081611b5c5790505b5090506000600190505b600254811015611d1c5760056000600183611b9c9190613a4b565b81526020019081526020016000206040518061010001604052908160008201548152602001600182018054611bd090613482565b80601f0160208091040260200160405190810160405280929190818152602001828054611bfc90613482565b8015611c495780601f10611c1e57610100808354040283529160200191611c49565b820191906000526020600020905b815481529060010190602001808311611c2c57829003601f168201915b50505050508152602001600282015481526020016003820154815260200160048201548152602001600582015481526020016006820160009054906101000a900473ffffffffffffffffffffffffffffffffffffffff1673ffffffffffffffffffffffffffffffffffffffff1673ffffffffffffffffffffffffffffffffffffffff1681526020016006820160149054906101000a900460ff161515151581525050828281518110611cfe57611cfd613875565b5b60200260200101819052508080611d149061340b565b915050611b81565b508091505090565b813373ffffffffffffffffffffffffffffffffffffffff166005600083815260200190815260200160002060060160009054906101000a900473ffffffffffffffffffffffffffffffffffffffff1673ffffffffffffffffffffffffffffffffffffffff1614611dc9576040517f08c379a0000000000000000000000000000000000000000000000000000000008152600401611dc09061322c565b60405180910390fd5b8160056000858152602001908152602001600020600501541115611e22576040517f08c379a0000000000000000000000000000000000000000000000000000000008152600401611e1990613c18565b60405180910390fd5b816005600085815260200190815260200160002060040181905550505050565b611e4a612680565b8173ffffffffffffffffffffffffffffffffffffffff16600760008473ffffffffffffffffffffffffffffffffffffffff1673ffffffffffffffffffffffffffffffffffffffff16815260200190815260200160002060010160009054906101000a900473ffffffffffffffffffffffffffffffffffffffff1673ffffffffffffffffffffffffffffffffffffffff1614611f1a576040517f08c379a0000000000000000000000000000000000000000000000000000000008152600401611f1190613b60565b60405180910390fd5b600760008373ffffffffffffffffffffffffffffffffffffffff1673ffffffffffffffffffffffffffffffffffffffff168152602001908152602001600020604051806080016040529081600082015481526020016001820160009054906101000a900473ffffffffffffffffffffffffffffffffffffffff1673ffffffffffffffffffffffffffffffffffffffff1673ffffffffffffffffffffffffffffffffffffffff1681526020016001820160149054906101000a900460ff161515151581526020016002820180548060200260200160405190810160405280929190818152602001828054801561202e57602002820191906000526020600020905b81548152602001906001019080831161201a575b5050505050815250509050919050565b803373ffffffffffffffffffffffffffffffffffffffff166005600083815260200190815260200160002060060160009054906101000a900473ffffffffffffffffffffffffffffffffffffffff1673ffffffffffffffffffffffffffffffffffffffff16146120e3576040517f08c379a00000000000000000000000000000000000000000000000000000000081526004016120da9061322c565b60405180910390fd5b4260056000848152602001908152602001600020600201541061213b576040517f08c379a000000000000000000000000000000000000000000000000000000000815260040161213290613c84565b60405180910390fd5b6000600560008481526020019081526020016000206005015411612194576040517f08c379a000000000000000000000000000000000000000000000000000000000815260040161218b90613cf0565b60405180910390fd5b6005600083815260200190815260200160002060060160149054906101000a900460ff166121f7576040517f08c379a00000000000000000000000000000000000000000000000000000000081526004016121ee90613855565b60405180910390fd5b6000600560008481526020019081526020016000206005015460056000858152602001908152602001600020600301546122319190613d10565b9050600060646005836122449190613d10565b61224e9190613d81565b90506000818361225e91906138a4565b905060008054906101000a900473ffffffffffffffffffffffffffffffffffffffff1673ffffffffffffffffffffffffffffffffffffffff166108fc839081150290604051600060405180830381858888f193505050501580156122c6573d6000803e3d6000fd5b503373ffffffffffffffffffffffffffffffffffffffff166108fc829081150290604051600060405180830381858888f1935050505015801561230d573d6000803e3d6000fd5b5060006005600087815260200190815260200160002060060160146101000a81548160ff0219169083151502179055505050505050565b60016020528060005260406000206000915054906101000a900460ff1681565b6008602052816000526040600020818154811061238057600080fd5b90600052602060002001600091509150505481565b61239d612623565b816005600084815260200190815260200160002060000154146123f5576040517f08c379a00000000000000000000000000000000000000000000000000000000081526004016123ec90613953565b60405180910390fd5b60056000838152602001908152602001600020604051806101000160405290816000820154815260200160018201805461242e90613482565b80601f016020809104026020016040519081016040528092919081815260200182805461245a90613482565b80156124a75780601f1061247c576101008083540402835291602001916124a7565b820191906000526020600020905b81548152906001019060200180831161248a57829003601f168201915b50505050508152602001600282015481526020016003820154815260200160048201548152602001600582015481526020016006820160009054906101000a900473ffffffffffffffffffffffffffffffffffffffff1673ffffffffffffffffffffffffffffffffffffffff1673ffffffffffffffffffffffffffffffffffffffff1681526020016006820160149054906101000a900460ff1615151515815250509050919050565b60045481565b60405180608001604052806000815260200160008152602001600073ffffffffffffffffffffffffffffffffffffffff1681526020016000151581525090565b5080546125a290613482565b6000825580601f106125b457506125d3565b601f0160209004906000526020600020908101906125d291906126c0565b5b50565b828054828255906000526020600020908101928215612612579160200282015b828111156126115782518255916020019190600101906125f6565b5b50905061261f91906126c0565b5090565b604051806101000160405280600081526020016060815260200160008152602001600081526020016000815260200160008152602001600073ffffffffffffffffffffffffffffffffffffffff1681526020016000151581525090565b604051806080016040528060008152602001600073ffffffffffffffffffffffffffffffffffffffff168152602001600015158152602001606081525090565b5b808211156126d95760008160009055506001016126c1565b5090565b6000604051905090565b600080fd5b600080fd5b6000819050919050565b612704816126f1565b811461270f57600080fd5b50565b600081359050612721816126fb565b92915050565b6000806040838503121561273e5761273d6126e7565b5b600061274c85828601612712565b925050602061275d85828601612712565b9150509250929050565b600080fd5b600080fd5b6000601f19601f8301169050919050565b7f4e487b7100000000000000000000000000000000000000000000000000000000600052604160045260246000fd5b6127ba82612771565b810181811067ffffffffffffffff821117156127d9576127d8612782565b5b80604052505050565b60006127ec6126dd565b90506127f882826127b1565b919050565b600067ffffffffffffffff82111561281857612817612782565b5b61282182612771565b9050602081019050919050565b82818337600083830152505050565b600061285061284b846127fd565b6127e2565b90508281526020810184848401111561286c5761286b61276c565b5b61287784828561282e565b509392505050565b600082601f83011261289457612893612767565b5b81356128a484826020860161283d565b91505092915050565b600080600080608085870312156128c7576128c66126e7565b5b600085013567ffffffffffffffff8111156128e5576128e46126ec565b5b6128f18782880161287f565b945050602061290287828801612712565b935050604061291387828801612712565b925050606061292487828801612712565b91505092959194509250565b600060208284031215612946576129456126e7565b5b600061295484828501612712565b91505092915050565b612966816126f1565b82525050565b600081519050919050565b600082825260208201905092915050565b60005b838110156129a657808201518184015260208101905061298b565b60008484015250505050565b60006129bd8261296c565b6129c78185612977565b93506129d7818560208601612988565b6129e081612771565b840191505092915050565b600073ffffffffffffffffffffffffffffffffffffffff82169050919050565b6000612a16826129eb565b9050919050565b612a2681612a0b565b82525050565b60008115159050919050565b612a4181612a2c565b82525050565b600061010082019050612a5d600083018b61295d565b8181036020830152612a6f818a6129b2565b9050612a7e604083018961295d565b612a8b606083018861295d565b612a98608083018761295d565b612aa560a083018661295d565b612ab260c0830185612a1d565b612abf60e0830184612a38565b9998505050505050505050565b6000602082019050612ae1600083018461295d565b92915050565b60008060408385031215612afe57612afd6126e7565b5b6000612b0c85828601612712565b925050602083013567ffffffffffffffff811115612b2d57612b2c6126ec565b5b612b398582860161287f565b9150509250929050565b612b4c816126f1565b82525050565b612b5b81612a0b565b82525050565b612b6a81612a2c565b82525050565b608082016000820151612b866000850182612b43565b506020820151612b996020850182612b43565b506040820151612bac6040850182612b52565b506060820151612bbf6060850182612b61565b50505050565b6000608082019050612bda6000830184612b70565b92915050565b612be981612a0b565b8114612bf457600080fd5b50565b600081359050612c0681612be0565b92915050565b600060208284031215612c2257612c216126e7565b5b6000612c3084828501612bf7565b91505092915050565b600081519050919050565b600082825260208201905092915050565b6000819050602082019050919050565b6000612c718383612b43565b60208301905092915050565b6000602082019050919050565b6000612c9582612c39565b612c9f8185612c44565b9350612caa83612c55565b8060005b83811015612cdb578151612cc28882612c65565b9750612ccd83612c7d565b925050600181019050612cae565b5085935050505092915050565b60006020820190508181036000830152612d028184612c8a565b905092915050565b6000608082019050612d1f600083018761295d565b612d2c602083018661295d565b612d396040830185612a1d565b612d466060830184612a38565b95945050505050565b6000602082019050612d646000830184612a38565b92915050565b6000602082019050612d7f6000830184612a1d565b92915050565b6000606082019050612d9a600083018661295d565b612da76020830185612a1d565b612db46040830184612a38565b949350505050565b60008060408385031215612dd357612dd26126e7565b5b6000612de185828601612712565b9250506020612df285828601612bf7565b9150509250929050565b600081519050919050565b600082825260208201905092915050565b6000819050602082019050919050565b600082825260208201905092915050565b6000612e448261296c565b612e4e8185612e28565b9350612e5e818560208601612988565b612e6781612771565b840191505092915050565b600061010083016000830151612e8b6000860182612b43565b5060208301518482036020860152612ea38282612e39565b9150506040830151612eb86040860182612b43565b506060830151612ecb6060860182612b43565b506080830151612ede6080860182612b43565b5060a0830151612ef160a0860182612b43565b5060c0830151612f0460c0860182612b52565b5060e0830151612f1760e0860182612b61565b508091505092915050565b6000612f2e8383612e72565b905092915050565b6000602082019050919050565b6000612f4e82612dfc565b612f588185612e07565b935083602082028501612f6a85612e18565b8060005b85811015612fa65784840389528151612f878582612f22565b9450612f9283612f36565b925060208a01995050600181019050612f6e565b50829750879550505050505092915050565b60006020820190508181036000830152612fd28184612f43565b905092915050565b600082825260208201905092915050565b6000612ff682612c39565b6130008185612fda565b935061300b83612c55565b8060005b8381101561303c5781516130238882612c65565b975061302e83612c7d565b92505060018101905061300f565b5085935050505092915050565b60006080830160008301516130616000860182612b43565b5060208301516130746020860182612b52565b5060408301516130876040860182612b61565b506060830151848203606086015261309f8282612feb565b9150508091505092915050565b600060208201905081810360008301526130c68184613049565b905092915050565b600080604083850312156130e5576130e46126e7565b5b60006130f385828601612bf7565b925050602061310485828601612712565b9150509250929050565b6000610100830160008301516131276000860182612b43565b506020830151848203602086015261313f8282612e39565b91505060408301516131546040860182612b43565b5060608301516131676060860182612b43565b50608083015161317a6080860182612b43565b5060a083015161318d60a0860182612b43565b5060c08301516131a060c0860182612b52565b5060e08301516131b360e0860182612b61565b508091505092915050565b600060208201905081810360008301526131d8818461310e565b905092915050565b7f596f7520617265206e6f7420746865206576656e74206f7267616e697a657200600082015250565b6000613216601f83612977565b9150613221826131e0565b602082019050919050565b6000602082019050818103600083015261324581613209565b9050919050565b7f4576656e742064617465206d75737420626520696e2074686520667574757265600082015250565b6000613282602083612977565b915061328d8261324c565b602082019050919050565b600060208201905081810360008301526132b181613275565b9050919050565b7f5469636b657420636f756e74206d75737420626520677265617465722074686160008201527f6e20300000000000000000000000000000000000000000000000000000000000602082015250565b6000613314602383612977565b915061331f826132b8565b604082019050919050565b6000602082019050818103600083015261334381613307565b9050919050565b7f5469636b6574207072696365206d75737420626520677265617465722074686160008201527f6e20300000000000000000000000000000000000000000000000000000000000602082015250565b60006133a6602383612977565b91506133b18261334a565b604082019050919050565b600060208201905081810360008301526133d581613399565b9050919050565b7f4e487b7100000000000000000000000000000000000000000000000000000000600052601160045260246000fd5b6000613416826126f1565b91507fffffffffffffffffffffffffffffffffffffffffffffffffffffffffffffffff8203613448576134476133dc565b5b600182019050919050565b7f4e487b7100000000000000000000000000000000000000000000000000000000600052602260045260246000fd5b6000600282049050600182168061349a57607f821691505b6020821081036134ad576134ac613453565b5b50919050565b60008190508160005260206000209050919050565b60006020601f8301049050919050565b600082821b905092915050565b6000600883026135157fffffffffffffffffffffffffffffffffffffffffffffffffffffffffffffffff826134d8565b61351f86836134d8565b95508019841693508086168417925050509392505050565b6000819050919050565b600061355c613557613552846126f1565b613537565b6126f1565b9050919050565b6000819050919050565b61357683613541565b61358a61358282613563565b8484546134e5565b825550505050565b600090565b61359f613592565b6135aa81848461356d565b505050565b5b818110156135ce576135c3600082613597565b6001810190506135b0565b5050565b601f821115613613576135e4816134b3565b6135ed846134c8565b810160208510156135fc578190505b613610613608856134c8565b8301826135af565b50505b505050565b600082821c905092915050565b600061363660001984600802613618565b1980831691505092915050565b600061364f8383613625565b9150826002028217905092915050565b6136688261296c565b67ffffffffffffffff81111561368157613680612782565b5b61368b8254613482565b6136968282856135d2565b600060209050601f8311600181146136c957600084156136b7578287015190505b6136c18582613643565b865550613729565b601f1984166136d7866134b3565b60005b828110156136ff578489015182556001820191506020850194506020810190506136da565b8683101561371c5784890151613718601f891682613625565b8355505b6001600288020188555050505b505050505050565b7f5469636b657420646f6573206e6f742065786973740000000000000000000000600082015250565b6000613767601583612977565b915061377282613731565b602082019050919050565b600060208201905081810360008301526137968161375a565b9050919050565b7f5469636b657473206861766520616c7265616479206265656e20736f6c640000600082015250565b60006137d3601e83612977565b91506137de8261379d565b602082019050919050565b60006020820190508181036000830152613802816137c6565b9050919050565b7f4576656e74206973206e6f742076616c69640000000000000000000000000000600082015250565b600061383f601283612977565b915061384a82613809565b602082019050919050565b6000602082019050818103600083015261386e81613832565b9050919050565b7f4e487b7100000000000000000000000000000000000000000000000000000000600052603260045260246000fd5b60006138af826126f1565b91506138ba836126f1565b92508282039050818111156138d2576138d16133dc565b5b92915050565b7f4e487b7100000000000000000000000000000000000000000000000000000000600052603160045260246000fd5b7f4576656e7420646f6573206e6f74206578697374000000000000000000000000600082015250565b600061393d601483612977565b915061394882613907565b602082019050919050565b6000602082019050818103600083015261396c81613930565b9050919050565b7f4e6f206d6f7265207469636b65747320617661696c61626c6500000000000000600082015250565b60006139a9601983612977565b91506139b482613973565b602082019050919050565b600060208201905081810360008301526139d88161399c565b9050919050565b7f5469636b657420616c726561647920626f756768740000000000000000000000600082015250565b6000613a15601583612977565b9150613a20826139df565b602082019050919050565b60006020820190508181036000830152613a4481613a08565b9050919050565b6000613a56826126f1565b9150613a61836126f1565b9250828201905080821115613a7957613a786133dc565b5b92915050565b7f496e636f727265637420616d6f756e742073656e740000000000000000000000600082015250565b6000613ab5601583612977565b9150613ac082613a7f565b602082019050919050565b60006020820190508181036000830152613ae481613aa8565b9050919050565b6000613af6826126f1565b915060008203613b0957613b086133dc565b5b600182039050919050565b7f5573657220646f6573206e6f7420657869737400000000000000000000000000600082015250565b6000613b4a601383612977565b9150613b5582613b14565b602082019050919050565b60006020820190508181036000830152613b7981613b3d565b9050919050565b7f4e6577207469636b657420636f756e74206d757374206265206772656174657260008201527f207468616e206f7220657175616c20746f20746865206e756d626572206f662060208201527f7469636b65747320616c726561647920736f6c64000000000000000000000000604082015250565b6000613c02605483612977565b9150613c0d82613b80565b606082019050919050565b60006020820190508181036000830152613c3181613bf5565b9050919050565b7f4576656e74206973206e6f74206f766572207965740000000000000000000000600082015250565b6000613c6e601583612977565b9150613c7982613c38565b602082019050919050565b60006020820190508181036000830152613c9d81613c61565b9050919050565b7f4e6f207469636b65747320736f6c640000000000000000000000000000000000600082015250565b6000613cda600f83612977565b9150613ce582613ca4565b602082019050919050565b60006020820190508181036000830152613d0981613ccd565b9050919050565b6000613d1b826126f1565b9150613d26836126f1565b9250828202613d34816126f1565b91508282048414831517613d4b57613d4a6133dc565b5b5092915050565b7f4e487b7100000000000000000000000000000000000000000000000000000000600052601260045260246000fd5b6000613d8c826126f1565b9150613d97836126f1565b925082613da757613da6613d52565b5b82820490509291505056fea264697066735822122024cfeea199dc322c79493e2b5bb0cbe6fd9e30dc1f7e6c26e85fb17bc6f73fbe64736f6c63430008130033",
  "linkReferences": {},
  "deployedLinkReferences": {}
}